{
  "contractName": "PokemonPlatform",
  "abi": [
    {
      "constant": true,
      "inputs": [
        {
          "name": "",
          "type": "uint256"
        }
      ],
      "name": "pokemonToOwner",
      "outputs": [
        {
          "name": "",
          "type": "address"
        }
      ],
      "payable": false,
      "stateMutability": "view",
      "type": "function"
    },
    {
      "constant": false,
      "inputs": [],
      "name": "renounceOwnership",
      "outputs": [],
      "payable": false,
      "stateMutability": "nonpayable",
      "type": "function"
    },
    {
      "constant": true,
      "inputs": [],
      "name": "owner",
      "outputs": [
        {
          "name": "",
          "type": "address"
        }
      ],
      "payable": false,
      "stateMutability": "view",
      "type": "function"
    },
    {
      "constant": true,
      "inputs": [
        {
          "name": "",
          "type": "address"
        }
      ],
      "name": "lastAccess",
      "outputs": [
        {
          "name": "timestamp",
          "type": "uint256"
        },
        {
          "name": "latitudeInt",
          "type": "uint256"
        },
        {
          "name": "longitudeInt",
          "type": "uint256"
        },
        {
          "name": "latitudeFloat",
          "type": "uint256"
        },
        {
          "name": "longitudeFloat",
          "type": "uint256"
        }
      ],
      "payable": false,
      "stateMutability": "view",
      "type": "function"
    },
    {
      "constant": true,
      "inputs": [
        {
          "name": "",
          "type": "bytes32"
        }
      ],
      "name": "lottery",
      "outputs": [
        {
          "name": "",
          "type": "uint256"
        }
      ],
      "payable": false,
      "stateMutability": "view",
      "type": "function"
    },
    {
      "constant": true,
      "inputs": [
        {
          "name": "",
          "type": "uint256"
        }
      ],
      "name": "pokemonToLocation",
      "outputs": [
        {
          "name": "timestamp",
          "type": "uint256"
        },
        {
          "name": "latitudeInt",
          "type": "uint256"
        },
        {
          "name": "longitudeInt",
          "type": "uint256"
        },
        {
          "name": "latitudeFloat",
          "type": "uint256"
        },
        {
          "name": "longitudeFloat",
          "type": "uint256"
        }
      ],
      "payable": false,
      "stateMutability": "view",
      "type": "function"
    },
    {
      "constant": false,
      "inputs": [
        {
          "name": "_newOwner",
          "type": "address"
        }
      ],
      "name": "transferOwnership",
      "outputs": [],
      "payable": false,
      "stateMutability": "nonpayable",
      "type": "function"
    },
    {
      "inputs": [],
      "payable": false,
      "stateMutability": "nonpayable",
      "type": "constructor"
    },
    {
      "anonymous": false,
      "inputs": [
        {
          "indexed": false,
          "name": "_PokemonId",
          "type": "uint256"
        },
        {
          "indexed": true,
          "name": "_owner",
          "type": "address"
        },
        {
          "indexed": false,
          "name": "_name",
          "type": "string"
        },
        {
          "indexed": false,
          "name": "_url",
          "type": "string"
        },
        {
          "indexed": false,
          "name": "_bio",
          "type": "string"
        },
        {
          "indexed": false,
          "name": "_generation",
          "type": "uint256"
        },
        {
          "indexed": false,
          "name": "_releaseTimestamp",
          "type": "uint256"
        }
      ],
      "name": "ClaimPokemon",
      "type": "event"
    },
    {
      "anonymous": false,
      "inputs": [
        {
          "indexed": true,
          "name": "_user",
          "type": "address"
        }
      ],
      "name": "NoAvailablePokemon",
      "type": "event"
    },
    {
      "anonymous": false,
      "inputs": [
        {
          "indexed": false,
          "name": "_num",
          "type": "uint256"
        }
      ],
      "name": "GpsCheckFailed",
      "type": "event"
    },
    {
      "anonymous": false,
      "inputs": [
        {
          "indexed": false,
          "name": "_currentGeneration",
          "type": "uint256"
        },
        {
          "indexed": false,
          "name": "_amount",
          "type": "uint256"
        }
      ],
      "name": "PokemonReleased",
      "type": "event"
    },
    {
      "anonymous": false,
      "inputs": [
        {
          "indexed": false,
          "name": "_id",
          "type": "uint256"
        },
        {
          "indexed": false,
          "name": "_name",
          "type": "string"
        },
        {
          "indexed": false,
          "name": "_url",
          "type": "string"
        },
        {
          "indexed": false,
          "name": "_bio",
          "type": "string"
        },
        {
          "indexed": false,
          "name": "_generation",
          "type": "uint32"
        },
        {
          "indexed": false,
          "name": "_releaseTimestamp",
          "type": "uint32"
        }
      ],
      "name": "PokemonPopulated",
      "type": "event"
    },
    {
      "anonymous": false,
      "inputs": [
        {
          "indexed": false,
          "name": "_name",
          "type": "string"
        },
        {
          "indexed": true,
          "name": "_address",
          "type": "address"
        },
        {
          "indexed": false,
          "name": "_photoUrl",
          "type": "string"
        }
      ],
      "name": "UserProfileCreated",
      "type": "event"
    },
    {
      "anonymous": false,
      "inputs": [
        {
          "indexed": true,
          "name": "previousOwner",
          "type": "address"
        }
      ],
      "name": "OwnershipRenounced",
      "type": "event"
    },
    {
      "anonymous": false,
      "inputs": [
        {
          "indexed": true,
          "name": "previousOwner",
          "type": "address"
        },
        {
          "indexed": true,
          "name": "newOwner",
          "type": "address"
        }
      ],
      "name": "OwnershipTransferred",
      "type": "event"
    },
    {
      "constant": false,
      "inputs": [
        {
          "name": "latitudeInt",
          "type": "uint256"
        },
        {
          "name": "latitudeFloat",
          "type": "uint256"
        },
        {
          "name": "longitudeInt",
          "type": "uint256"
        },
        {
          "name": "longitudeFloat",
          "type": "uint256"
        }
      ],
      "name": "findPokemon",
      "outputs": [
        {
          "name": "",
          "type": "bool"
        }
      ],
      "payable": false,
      "stateMutability": "nonpayable",
      "type": "function"
    },
    {
      "constant": true,
      "inputs": [
        {
          "name": "_index",
          "type": "uint256"
        }
      ],
      "name": "getPokemon",
      "outputs": [
        {
          "name": "",
          "type": "string"
        },
        {
          "name": "",
          "type": "string"
        },
        {
          "name": "",
          "type": "string"
        },
        {
          "name": "",
          "type": "uint256"
        },
        {
          "name": "",
          "type": "uint256"
        }
      ],
      "payable": false,
      "stateMutability": "view",
      "type": "function"
    },
    {
      "constant": true,
      "inputs": [],
      "name": "getMyPokemons",
      "outputs": [
        {
          "name": "",
          "type": "uint256[]"
        }
      ],
      "payable": false,
      "stateMutability": "view",
      "type": "function"
    },
    {
      "constant": true,
      "inputs": [],
      "name": "getAllPokemons",
      "outputs": [
        {
          "name": "",
          "type": "uint256[]"
        }
      ],
      "payable": false,
      "stateMutability": "view",
      "type": "function"
    },
    {
      "constant": true,
      "inputs": [],
      "name": "getUnclaimedPokemons",
      "outputs": [
        {
          "name": "",
          "type": "uint256[]"
        }
      ],
      "payable": false,
      "stateMutability": "view",
      "type": "function"
    },
    {
      "constant": false,
      "inputs": [
        {
          "name": "name",
          "type": "string"
        },
        {
          "name": "url",
          "type": "string"
        },
        {
          "name": "bio",
          "type": "string"
        },
        {
          "name": "generation",
          "type": "uint32"
        }
      ],
      "name": "populatePokemon",
      "outputs": [],
      "payable": false,
      "stateMutability": "nonpayable",
      "type": "function"
    },
    {
      "constant": false,
      "inputs": [],
      "name": "releasePokemon",
      "outputs": [],
      "payable": false,
      "stateMutability": "nonpayable",
      "type": "function"
    },
    {
      "constant": false,
      "inputs": [
        {
          "name": "_name",
          "type": "string"
        },
        {
          "name": "_photoUrl",
          "type": "string"
        }
      ],
      "name": "createProfile",
      "outputs": [
        {
          "name": "",
          "type": "bool"
        }
      ],
      "payable": false,
      "stateMutability": "nonpayable",
      "type": "function"
    },
    {
      "constant": true,
      "inputs": [],
      "name": "getProfile",
      "outputs": [
        {
          "name": "",
          "type": "string"
        },
        {
          "name": "",
          "type": "address"
        },
        {
          "name": "",
          "type": "string"
        },
        {
          "name": "",
          "type": "uint256"
        }
      ],
      "payable": false,
      "stateMutability": "view",
      "type": "function"
    },
    {
      "constant": true,
      "inputs": [
        {
          "name": "pokemonId",
          "type": "uint256"
        }
      ],
      "name": "getPokemonLocation",
      "outputs": [
        {
          "name": "",
          "type": "uint256"
        },
        {
          "name": "",
          "type": "uint256"
        },
        {
          "name": "",
          "type": "uint256"
        },
        {
          "name": "",
          "type": "uint256"
        }
      ],
      "payable": false,
      "stateMutability": "view",
      "type": "function"
    }
  ],
  "bytecode": "0x60806040526000600a5534801561001557600080fd5b5060008054600160a060020a03191633178155610e106009556001600b55600c55612042806100456000396000f3006080604052600436106100f05763ffffffff7c01000000000000000000000000000000000000000000000000000000006000350416632f7467b381146100f55780634dd2f530146101295780635e9167901461018e5780636deba99c146101a3578063715018a6146101ba57806372e678c4146101cf5780638da5cb5b1461020d57806398b3874814610222578063a06bbcbf146102ff578063a8b955e71461034b578063ba1feb8a14610360578063cff4c845146103a0578063d6afc9b1146103ca578063d6fe1a6a146104dd578063df77621c146104f5578063f0b305db14610516578063f2fde38b14610680575b600080fd5b34801561010157600080fd5b5061010d6004356106a1565b60408051600160a060020a039092168252519081900360200190f35b34801561013557600080fd5b5061013e6106bc565b60408051602080825283518183015283519192839290830191858101910280838360005b8381101561017a578181015183820152602001610162565b505050509050019250505060405180910390f35b34801561019a57600080fd5b5061013e610781565b3480156101af57600080fd5b506101b8610893565b005b3480156101c657600080fd5b506101b8610a3b565b3480156101db57600080fd5b506101e7600435610aa7565b604080519485526020850193909352838301919091526060830152519081900360800190f35b34801561021957600080fd5b5061010d610b26565b34801561022e57600080fd5b506040805160206004803580820135601f81018490048402850184019095528484526101b894369492936024939284019190819084018382808284375050604080516020601f89358b018035918201839004830284018301909452808352979a99988101979196509182019450925082915084018382808284375050604080516020601f89358b018035918201839004830284018301909452808352979a9998810197919650918201945092508291508401838280828437509497505050923563ffffffff169350610b3592505050565b34801561030b57600080fd5b50610320600160a060020a0360043516610daf565b6040805195865260208601949094528484019290925260608401526080830152519081900360a00190f35b34801561035757600080fd5b5061013e610dde565b34801561036c57600080fd5b5061038c6024600480358281019290820135918135918201910135610f28565b604080519115158252519081900360200190f35b3480156103ac57600080fd5b506103b8600435611129565b60408051918252519081900360200190f35b3480156103d657600080fd5b506103df61113b565b604051808060200185600160a060020a0316600160a060020a0316815260200180602001848152602001838103835287818151815260200191508051906020019080838360005b8381101561043e578181015183820152602001610426565b50505050905090810190601f16801561046b5780820380516001836020036101000a031916815260200191505b50838103825285518152855160209182019187019080838360005b8381101561049e578181015183820152602001610486565b50505050905090810190601f1680156104cb5780820380516001836020036101000a031916815260200191505b50965050505050505060405180910390f35b3480156104e957600080fd5b5061032060043561133d565b34801561050157600080fd5b5061038c60043560243560443560643561136c565b34801561052257600080fd5b5061052e60043561176a565b60405180806020018060200180602001868152602001858152602001848103845289818151815260200191508051906020019080838360005b8381101561057f578181015183820152602001610567565b50505050905090810190601f1680156105ac5780820380516001836020036101000a031916815260200191505b5084810383528851815288516020918201918a019080838360005b838110156105df5781810151838201526020016105c7565b50505050905090810190601f16801561060c5780820380516001836020036101000a031916815260200191505b50848103825287518152875160209182019189019080838360005b8381101561063f578181015183820152602001610627565b50505050905090810190601f16801561066c5780820380516001836020036101000a031916815260200191505b509850505050505050505060405180910390f35b34801561068c57600080fd5b506101b8600160a060020a0360043516611a20565b600560205260009081526040902054600160a060020a031681565b6060806000806004600033600160a060020a0316600160a060020a0316815260200190815260200160002060030154604051908082528060200260200182016040528015610714578160200160208202803883390190505b50925060009150600090505b6001548110156107795760018101600090815260056020526040902054600160a060020a03163314156107715780600101838381518110151561075f57fe5b60209081029091010152600191909101905b600101610720565b509092915050565b3360009081526004602052604081206001015460609182918190600160a060020a031615156107fc576040805160e560020a62461bcd0281526020600482015260376024820152600080516020611ff78339815191526044820152600080516020611fd7833981519152606482015290519081900360840190fd5b600354604051908082528060200260200182016040528015610828578160200160208202803883390190505b50925060009150600090505b60015481101561077957600180548290811061084c57fe5b906000526020600020906005020160040154600014151561088b5780600101838381518110151561087957fe5b60209081029091010152600191909101905b600101610834565b6000806000806000806108a4611ea9565b60008054600160a060020a031633146108bc57600080fd5b60009750600096505b6001548710156109ec57600a5460018054899081106108e057fe5b90600052602060002090600502016003015414156109e1574260018881548110151561090857fe5b60009182526020909120600460059092020101556003805460019081019091559790970196610935611a43565b8096508197508298508399505050505060a060405190810160405280428152602001878152602001858152602001868152602001848152509150816008600089600101815260200190815260200160002060008201518160000155602082015181600101556040820151816002015560608201518160030155608082015181600401559050506109ca86868686600a54611af3565b600081815260066020526040902060018901905590505b6001909601956108c5565b600a80546001810190915560408051918252602082018a905280517f08c95ac0d1ee0791132d8cd5d5783d82ca5bcec68d1557eb50b9443acd850d159281900390910190a15050505050505050565b600054600160a060020a03163314610a5257600080fd5b60008054604051600160a060020a03909116917ff8df31144d9c2f0f6b59d69b8b98abd5459d07f2742c4df920b25aae33c6482091a26000805473ffffffffffffffffffffffffffffffffffffffff19169055565b600080600080610ab5611ea9565b600054600160a060020a03163314610acc57600080fd5b5050506000928352505060086020908152604091829020825160a081018452815481526001820154928101839052600282015493810184905260038201546060820181905260049092015460809091018190529193909190565b600054600160a060020a031681565b60008054600160a060020a03163314610b4d57600080fd5b6040805160a081018252868152602080820187905291810185905263ffffffff84166060820152600060808201819052600180548082018083559190925282518051919460059093027fb10e2d527612073b26eecdfd717e6a320cf44b4afac2b0732d9fcbe2b7fa0cf60192610bc892849290910190611ed9565b506020828101518051610be19260018501920190611ed9565b5060408201518051610bfd916002840191602090910190611ed9565b506060820151816003015560808201518160040155505090507f02e7bcce4bfdc81ff09a06fc19cce5565d456dbd33d96009b7143df1f57c806e81868686866000604051808781526020018060200180602001806020018663ffffffff1663ffffffff1681526020018563ffffffff168152602001848103845289818151815260200191508051906020019080838360005b83811015610ca7578181015183820152602001610c8f565b50505050905090810190601f168015610cd45780820380516001836020036101000a031916815260200191505b5084810383528851815288516020918201918a019080838360005b83811015610d07578181015183820152602001610cef565b50505050905090810190601f168015610d345780820380516001836020036101000a031916815260200191505b50848103825287518152875160209182019189019080838360005b83811015610d67578181015183820152602001610d4f565b50505050905090810190601f168015610d945780820380516001836020036101000a031916815260200191505b50995050505050505050505060405180910390a15050505050565b600760205260009081526040902080546001820154600283015460038401546004909401549293919290919085565b3360009081526004602052604081206001015460609190829082908190600160a060020a03161515610e5c576040805160e560020a62461bcd0281526020600482015260376024820152600080516020611ff78339815191526044820152600080516020611fd7833981519152606482015290519081900360840190fd5b60025460035403935083604051908082528060200260200182016040528015610e8f578160200160208202803883390190505b50925060009150600090505b600154811015610f1f576000600182815481101515610eb657fe5b906000526020600020906005020160040154118015610eee575060018101600090815260056020526040902054600160a060020a0316155b15610f1757806001018383815181101515610f0557fe5b60209081029091010152600191909101905b600101610e9b565b50909392505050565b33600090815260046020526040812060010154600160a060020a031615610f5157506000611121565b6040805160a06020601f880181900402820181019092526080810186815290918291908890889081908501838280828437820191505050505050815260200133600160a060020a0316815260200184848080601f0160208091040260200160405190810160405280939291908181526020018383808284375050509284525050600060209283018190523381526004835260409020835180519193610ffb93508492910190611ed9565b5060208281015160018301805473ffffffffffffffffffffffffffffffffffffffff1916600160a060020a03909216919091179055604083015180516110479260028501920190611ed9565b506060918201516003918201556040805160a0810182526000808252602080830182815283850183815284880184815260808601858152338087526007865295889020965187559251600187015590516002860155519584019590955593516004909201919091558151828152918201889052927f5a85eb224bd8517c8bfb485b8c7d6598e9ff82fb6bf879e2f911994faa09048f92899289928992899291829182019082018787808284379091018481038352858152602001905085858082843760405192018290039850909650505050505050a25060015b949350505050565b60066020526000908152604090205481565b606060006060600061114b611f57565b33600090815260046020526040902060010154600160a060020a031615156111bf576040805160e560020a62461bcd0281526020600482015260376024820152600080516020611ff78339815191526044820152600080516020611fd7833981519152606482015290519081900360840190fd5b336000908152600460209081526040918290208251815460026001821615610100026000190190911604601f8101849004909302810160a09081019094526080810183815290939192849284919084018282801561125e5780601f106112335761010080835404028352916020019161125e565b820191906000526020600020905b81548152906001019060200180831161124157829003601f168201915b5050509183525050600182810154600160a060020a0316602080840191909152600280850180546040805161010096831615969096026000190190911692909204601f810184900484028501840183528085529190940193918301828280156113085780601f106112dd57610100808354040283529160200191611308565b820191906000526020600020905b8154815290600101906020018083116112eb57829003601f168201915b505050918352505060039190910154602091820152815190820151604083015160609093015191989097509195509350915050565b600860205260009081526040902080546001820154600283015460038401546004909401549293919290919085565b336000908152600460205260408120600101548190819081908190600160a060020a031615156113e8576040805160e560020a62461bcd0281526020600482015260376024820152600080516020611ff78339815191526044820152600080516020611fd7833981519152606482015290519081900360840190fd5b6113f489898989611bf2565b151561143757604080516001815290517fb24438adb82253ae9546cf6656597f26e9823fbc26429450179c1b58b8f91d079181900360200190a16000945061175e565b336000908152600760205260408120428155600181018b905560028101899055600381018a905560040187905593505b600a5484101561172e5761147e8989898988611af3565b6000818152600660205260409020549093501561172357600083815260066020908152604080832054808452600590925290912054909250600160a060020a0316156114c957611723565b6000828152600560209081526040808320805473ffffffffffffffffffffffffffffffffffffffff1916339081179091558352600490915290206003018054600190810190915560028054820190558054600019840190811061152857fe5b9060005260206000209060050201905033600160a060020a03167fa4447766f159a643ba0f19e74f766d2e6d22e2e1465d78c9a232176c5b6156c683836000018460010185600201866003015487600401546040518087815260200180602001806020018060200186815260200185815260200184810384528981815460018160011615610100020316600290048152602001915080546001816001161561010002031660029004801561161d5780601f106115f25761010080835404028352916020019161161d565b820191906000526020600020905b81548152906001019060200180831161160057829003601f168201915b50508481038352885460026000196101006001841615020190911604808252602090910190899080156116915780601f1061166657610100808354040283529160200191611691565b820191906000526020600020905b81548152906001019060200180831161167457829003601f168201915b50508481038252875460026000196101006001841615020190911604808252602090910190889080156117055780601f106116da57610100808354040283529160200191611705565b820191906000526020600020905b8154815290600101906020018083116116e857829003601f168201915b5050995050505050505050505060405180910390a26001945061175e565b600190930192611467565b60405133907fa5c3317befe4b309ad3fd3979568af7a83c0700cf90d15bce40fe5a11b7f0b5490600090a2600094505b50505050949350505050565b606080606060008061177a611f89565b33600090815260046020526040902060010154600160a060020a031615156117ee576040805160e560020a62461bcd0281526020600482015260376024820152600080516020611ff78339815191526044820152600080516020611fd7833981519152606482015290519081900360840190fd5b60018054600019890190811061180057fe5b600091825260209182902060408051600593909302909101805460026001821615610100026000190190911604601f8101859004909402830160c090810190925260a08301848152929390928492909184918401828280156118a35780601f10611878576101008083540402835291602001916118a3565b820191906000526020600020905b81548152906001019060200180831161188657829003601f168201915b50505050508152602001600182018054600181600116156101000203166002900480601f0160208091040260200160405190810160405280929190818152602001828054600181600116156101000203166002900480156119455780601f1061191a57610100808354040283529160200191611945565b820191906000526020600020905b81548152906001019060200180831161192857829003601f168201915b5050509183525050600282810180546040805160206001841615610100026000190190931694909404601f810183900483028501830190915280845293810193908301828280156119d75780601f106119ac576101008083540402835291602001916119d7565b820191906000526020600020905b8154815290600101906020018083116119ba57829003601f168201915b50505091835250506003820154602080830191909152600490920154604091820152825191830151908301516060840151608090940151929b919a509850919650945092505050565b600054600160a060020a03163314611a3757600080fd5b611a4081611caa565b50565b600080600080600080600080610168611a5c6001611d27565b63ffffffff16811515611a6b57fe5b0663ffffffff169350610168611a816002611d27565b63ffffffff16811515611a9057fe5b0663ffffffff169250620f4240611aa76003611d27565b63ffffffff16811515611ab657fe5b0663ffffffff169150620f4240611acd6004611d27565b63ffffffff16811515611adc57fe5b949992985092965050910663ffffffff1692509050565b6101689485900694620f42409485900694930692909106906000811515611b21576000945060009250611b55565b60028211611b4257620186a0850690940393620186a0830683039250611b55565b6127108506909403936127108306830392505b85848685604051602001808581526020018481526020018381526020018281526020019450505050506040516020818303038152906040526040518082805190602001908083835b60208310611bbc5780518252601f199092019160209182019101611b9d565b5181516020939093036101000a600019018019909116921691909117905260405192018290039091209998505050505050505050565b6000611bfc611ea9565b50336000908152600760209081526040808320815160a0810183528154808252600183015494820194909452600282015492810192909252600381015460608301526004015460808201529190819015611c9a57611c7083602001518460600151856040015186608001518c8c8c8c611dcb565b600b549193509150821080611c935750600b5482148015611c935750600c548111155b9350611c9f565b600193505b505050949350505050565b600160a060020a0381161515611cbf57600080fd5b60008054604051600160a060020a03808516939216917f8be0079c531659141344cd1fd0a4f28419497f9722a3daafe3b4186f6b6457e091a36000805473ffffffffffffffffffffffffffffffffffffffff1916600160a060020a0392909216919091179055565b60006401000000004244846040516020018084815260200183815260200182815260200193505050506040516020818303038152906040526040518082805190602001908083835b60208310611d8e5780518252601f199092019160209182019101611d6f565b5181516020939093036101000a6000190180199091169216919091179052604051920182900390912092505050811515611dc457fe5b0692915050565b600080600080600080611de08e8b8f8c611e09565b9094509250611df18c898d8a611e09565b94019e939092019c50919a5050505050505050505050565b610168938490069390920691620f4240918290069190066000808486038385038282138015611e385750600081125b80611e4e5750600082138015611e4e5750600081125b15611e7e576000821215611e71576000919091036000190190620f424003611e7e565b60001990910190620f4240015b6000821215611e8f57816000190291505b6000811215611e9c576000035b9097909650945050505050565b60a06040519081016040528060008152602001600081526020016000815260200160008152602001600081525090565b828054600181600116156101000203166002900490600052602060002090601f016020900481019282601f10611f1a57805160ff1916838001178555611f47565b82800160010185558215611f47579182015b82811115611f47578251825591602001919060010190611f2c565b50611f53929150611fb9565b5090565b608060405190810160405280606081526020016000600160a060020a0316815260200160608152602001600081525090565b60a06040519081016040528060608152602001606081526020016060815260200160008152602001600081525090565b611fd391905b80821115611f535760008155600101611fbf565b9056002063726561746550726f66696c652066756e6374696f6e0000000000000000007573657220686173206e6f2070726f66696c653b20706c656173652063616c6ca165627a7a723058207d31e66595312770be04927b7646de0ed20d82a7ce217d309cf0dfebe960f5ee0029",
  "source": "pragma solidity ^0.4.22;\n\nimport './zeppelin/Ownable.sol';\nimport './gps.sol';\n\ncontract PokemonPlatform is Ownable, gps{\n    // Parameters of the Pokemon\n    struct Pokemon { // Struct\n        string name;\n        string url;\n        string bio;\n        uint generation;\n        uint releaseTimestamp;\n    }\n    // array of Pokemon\n    Pokemon [] allPokemons;\n    // number of total claimed Pokemon\n    uint numClaimedPokemon;\n    // number of released Pokemon\n    uint numReleasedPokemon;\n\n    // latitudeInt is the integer part of the latitude, latitudeFloat is the float part\n    struct Access {\n      uint timestamp;\n      uint latitudeInt;\n      uint longitudeInt;\n      uint latitudeFloat;\n      uint longitudeFloat;\n    }\n\n    struct UserProfile {\n      string name;\n      address userAddress;\n      string photoUrl;\n      uint   numPokemon;\n    }\n    // given address return the user profile info\n    mapping(address => UserProfile) ownerToProfile;\n\n    // the ownership of the pokemonId  => owner address\n    mapping(uint => address) public pokemonToOwner;\n\n    // store the location of pokemon, byte32 is the hash versioned of the geohash\n    mapping(bytes32 => uint) public lottery;\n\n    // the last access user have. used to GPS check and rate limit\n    mapping(address => Access) public lastAccess;\n\n    // hacking geoLocations data for dashboard and display\n    mapping(uint => Access) public pokemonToLocation;\n\n    // the generation number and total count\n    //event NewPokemonGenerationReleased(uint generation, uint totalCount);\n    event ClaimPokemon(uint _PokemonId , address indexed _owner, string _name, string _url, string _bio, uint _generation, uint _releaseTimestamp);\n    event NoAvailablePokemon(address indexed _user);\n    event GpsCheckFailed(uint _num);\n    event PokemonReleased(uint _currentGeneration, uint _amount);\n    event PokemonPopulated(uint _id, string _name, string _url, string _bio, uint32 _generation, uint32 _releaseTimestamp);\n    event UserProfileCreated(string _name, address indexed _address, string _photoUrl);\n\n    uint rateLimitInterval;\n    uint nextGeneration = 0;\n    // gps Int and float are used to prevent gps spoofing.\n    uint gpsThresholdInt;\n    uint gpsThresholdFloat;\n\n    constructor() public {\n      rateLimitInterval = 1 hours;\n      gpsThresholdInt = 1;\n      gpsThresholdFloat = 0;\n    }\n\n    modifier rateLimitCheck() {\n      if (lastAccess[msg.sender].timestamp != 0) {\n        require(lastAccess[msg.sender].timestamp + rateLimitInterval < now);\n      }\n      _;\n    }\n\n    function gpsCheck(uint latitudeInt, uint latitudeFloat, uint longitudeInt, uint longitudeFloat) private view returns(bool) {\n      Access memory la = lastAccess[msg.sender];\n      if (la.timestamp != 0) {\n        uint intDiff;\n        uint floatDiff;\n        (intDiff, floatDiff) = gpsDifference(la.latitudeInt, la.latitudeFloat, la.longitudeInt, la.longitudeFloat, latitudeInt, latitudeFloat, longitudeInt, longitudeFloat);\n        return (intDiff < gpsThresholdInt) || (intDiff == gpsThresholdInt && floatDiff <= gpsThresholdFloat);\n      }\n      return true;\n    }\n\n    modifier hasProfile() {\n        require(ownerToProfile[msg.sender].userAddress != address(0), \"user has no profile; please call createProfile function\");\n        _;\n    }\n\n\n    // TODO: apply ratelimit and GPS spoofing checks - user claim ownership of Pokemon\n    function findPokemon(uint latitudeInt, uint latitudeFloat, uint longitudeInt, uint longitudeFloat) external\n      //rateLimitCheck()\n      hasProfile()\n      returns(bool) {\n        if (!gpsCheck(latitudeInt, latitudeFloat, longitudeInt, longitudeFloat)) {\n          emit GpsCheckFailed(1);\n          return false;\n        }\n        // log access\n        lastAccess[msg.sender].timestamp = block.timestamp;\n        lastAccess[msg.sender].latitudeInt = latitudeInt;\n        lastAccess[msg.sender].longitudeInt = longitudeInt;\n        lastAccess[msg.sender].latitudeFloat = latitudeFloat;\n        lastAccess[msg.sender].longitudeFloat = longitudeFloat;\n\n        for (uint generation = 0; generation < nextGeneration; generation++) {\n          bytes32 geoHash = generateGeoHash(latitudeInt, latitudeFloat, longitudeInt, longitudeFloat, generation);\n          if(lottery[geoHash] != 0) {\n            uint pId = lottery[geoHash];\n            if (pokemonToOwner[pId] != address(0)) {\n                // pokemon has been claimed\n                continue;\n            }\n            pokemonToOwner[pId] = msg.sender;\n            ownerToProfile[msg.sender].numPokemon += 1;\n            numClaimedPokemon += 1;\n\n            // read Pokemons\n            Pokemon storage newPokemon = allPokemons[pId - 1];\n            //emit ClaimPokemon(pId, msg.sender, newPokemon.name, newPokemon.url,\n            emit ClaimPokemon(pId, msg.sender, newPokemon.name, newPokemon.url,\n              newPokemon.bio, newPokemon.generation, newPokemon.releaseTimestamp);\n            return true;\n          }\n        }\n\n        emit NoAvailablePokemon(msg.sender);\n        return false;\n    }\n\n    function getPokemon(uint _index) external view hasProfile() returns (string, string, string, uint, uint) {\n      Pokemon memory p = allPokemons[_index - 1];\n      return (p.name, p.url, p.bio, p.generation, p.releaseTimestamp);\n    }\n\n    // get the pokemon belong to current owner - retuns integer array of Pokemon Ids\n    function getMyPokemons() external view returns (uint[]){\n      // loop through to look for Pokemon belonging to this msg.sender\n      uint[] memory v = new uint[](ownerToProfile[msg.sender].numPokemon);\n      uint k = 0;\n      for (uint i=0; i < allPokemons.length; i++) {\n          if(pokemonToOwner[i + 1] == msg.sender){\n            // pokemon id is index + 1\n              v[k] = i + 1;\n              k += 1;\n          }\n      }\n      return v;\n    }\n\n    // get all available pokemon that has been released\n    function getAllPokemons() external view hasProfile() returns (uint[]) {\n      // find all released Pokemon\n      uint[] memory v = new uint[](numReleasedPokemon);\n      uint k = 0;\n      for (uint i=0; i < allPokemons.length; i++) {\n          // release time is earlier than current timestamp -> released Pokemon\n          if(allPokemons[i].releaseTimestamp != 0 ){\n              v[k] = i + 1;\n              k += 1;\n          }\n      }\n      return v;\n    }\n\n    // get the unclaimed pokemon mapping\n    function getUnclaimedPokemons() external view hasProfile() returns(uint[]) {\n      // front end parse the generation and total count\n      // find all released Pokemon\n      uint numUnclaimed = numReleasedPokemon - numClaimedPokemon;\n      uint[] memory v = new uint[](numUnclaimed);\n      uint k = 0;\n      for (uint i=0; i < allPokemons.length; i++) {\n          // release time is earlier than current timestamp -> released Pokemon\n          if(allPokemons[i].releaseTimestamp > 0 && pokemonToOwner[i + 1] == address(0)){\n              v[k] = i + 1;\n              k += 1;\n          }\n      }\n      return v;\n    }\n\n    // used to add new pokemons into allPokemons\n    function populatePokemon(string name, string url, string bio, uint32 generation) public onlyOwner() {\n      // increment Id\n      uint PokemonId = allPokemons.push(Pokemon(name, url, bio, generation, 0));\n      emit PokemonPopulated(PokemonId, name, url, bio, generation, 0);\n    }\n\n    // owner release new pokemon generation\n    function releasePokemon() public onlyOwner() {\n        // release Pokemons with nextGeneration\n        uint amount = 0;\n        for (uint i=0; i < allPokemons.length; i++) {\n            // release time is earlier than current timestamp -> released Pokemon\n            if(allPokemons[i].generation == nextGeneration){\n                allPokemons[i].releaseTimestamp = block.timestamp;\n                numReleasedPokemon += 1;\n                amount += 1;\n                // add geoHash to pokemonToLocation\n                uint laInt;\n                uint laFloat;\n                uint loInt;\n                uint loFloat;\n                (laInt, laFloat, loInt, loFloat) = generateRandomLocation();\n                Access memory newAccess = Access(block.timestamp, laInt, loInt, laFloat, loFloat);\n                pokemonToLocation[i + 1] = newAccess;\n                // add geoHash to lottery\n                bytes32 hashcode = generateGeoHash(laInt, laFloat, loInt, loFloat, nextGeneration);\n                lottery[hashcode] = i + 1;\n            }\n        }\n        // increment generation counter\n        nextGeneration += 1;\n        emit PokemonReleased(nextGeneration - 1, amount);\n    }\n\n    // create user profile\n    function createProfile(string _name, string _photoUrl) external returns (bool){\n        // create user profile\n        if (ownerToProfile[msg.sender].userAddress != address(0)){\n            return false;\n        }\n        ownerToProfile[msg.sender] = UserProfile(_name, msg.sender, _photoUrl, 0);\n        // create access\n        lastAccess[msg.sender] = Access(0, 0, 0, 0, 0);\n        emit UserProfileCreated(_name, msg.sender, _photoUrl);\n        return true;\n    }\n\n    // return the user getProfile\n    function getProfile() external view hasProfile() returns (string, address, string, uint) {\n        UserProfile memory user = ownerToProfile[msg.sender];\n        return (user.name, user.userAddress, user.photoUrl, user.numPokemon);\n    }\n\n    // get all pokemon locations , this is for system testing and demo only\n    function getPokemonLocation(uint pokemonId) external view onlyOwner returns(uint, uint, uint, uint) {\n        Access memory access = pokemonToLocation[pokemonId];\n        return (access.latitudeInt, access.longitudeInt, access.latitudeFloat, access.longitudeFloat);\n    }\n\n}\n",
  "sourcePath": "/Users/fancy/Documents/hackathon/cryptoHackathon/smartContracts/contracts/PokemonPlatform.sol",
  "compiler": {
    "name": "solc",
    "version": "0.4.24+commit.e67f0147.Emscripten.clang"
  },
  "schemaVersion": "2.0.0",
  "updatedAt": "2018-08-05T05:14:08.745Z"
}