{
  "contractName": "Auction",
  "abi": [
    {
      "constant": true,
      "inputs": [],
      "name": "pokemon",
      "outputs": [
        {
          "name": "",
          "type": "address"
        }
      ],
      "payable": false,
      "stateMutability": "view",
      "type": "function"
    },
    {
      "constant": true,
      "inputs": [
        {
          "name": "",
          "type": "bytes32"
        }
      ],
      "name": "bids",
      "outputs": [
        {
          "name": "issuer",
          "type": "address"
        },
        {
          "name": "pokemonId",
          "type": "uint256"
        },
        {
          "name": "blindedBid",
          "type": "bytes32"
        },
        {
          "name": "deposit",
          "type": "uint256"
        },
        {
          "name": "highestBidder",
          "type": "address"
        },
        {
          "name": "highestBid",
          "type": "uint256"
        },
        {
          "name": "biddingEnd",
          "type": "uint256"
        },
        {
          "name": "ended",
          "type": "bool"
        }
      ],
      "payable": false,
      "stateMutability": "view",
      "type": "function"
    },
    {
      "constant": true,
      "inputs": [],
      "name": "mToken",
      "outputs": [
        {
          "name": "",
          "type": "address"
        }
      ],
      "payable": false,
      "stateMutability": "view",
      "type": "function"
    },
    {
      "inputs": [
        {
          "name": "_tokenAddress",
          "type": "address"
        },
        {
          "name": "_pokemonAddress",
          "type": "address"
        }
      ],
      "payable": false,
      "stateMutability": "nonpayable",
      "type": "constructor"
    },
    {
      "anonymous": false,
      "inputs": [
        {
          "indexed": true,
          "name": "_bider",
          "type": "address"
        },
        {
          "indexed": false,
          "name": "_blindedBid",
          "type": "bytes32"
        },
        {
          "indexed": false,
          "name": "_amount",
          "type": "uint256"
        }
      ],
      "name": "BidSubmitted",
      "type": "event"
    },
    {
      "anonymous": false,
      "inputs": [
        {
          "indexed": true,
          "name": "_issuer",
          "type": "address"
        },
        {
          "indexed": false,
          "name": "_blindedBid",
          "type": "bytes32"
        }
      ],
      "name": "BidCreated",
      "type": "event"
    },
    {
      "anonymous": false,
      "inputs": [
        {
          "indexed": true,
          "name": "_bider",
          "type": "address"
        },
        {
          "indexed": false,
          "name": "_blindedBid",
          "type": "bytes32"
        },
        {
          "indexed": false,
          "name": "_amount",
          "type": "uint256"
        }
      ],
      "name": "NeedBidHigher",
      "type": "event"
    },
    {
      "anonymous": false,
      "inputs": [
        {
          "indexed": true,
          "name": "_caller",
          "type": "address"
        },
        {
          "indexed": false,
          "name": "_blindedBid",
          "type": "bytes32"
        },
        {
          "indexed": true,
          "name": "_winner",
          "type": "address"
        },
        {
          "indexed": false,
          "name": "_highestBid",
          "type": "uint256"
        }
      ],
      "name": "AuctionEnded",
      "type": "event"
    },
    {
      "constant": false,
      "inputs": [
        {
          "name": "_blindedBid",
          "type": "bytes32"
        },
        {
          "name": "_pokemonId",
          "type": "uint256"
        },
        {
          "name": "_biddingTime",
          "type": "uint256"
        },
        {
          "name": "_startBidPrice",
          "type": "uint256"
        }
      ],
      "name": "createBid",
      "outputs": [],
      "payable": false,
      "stateMutability": "nonpayable",
      "type": "function"
    },
    {
      "constant": false,
      "inputs": [
        {
          "name": "_blindedBid",
          "type": "bytes32"
        },
        {
          "name": "_amount",
          "type": "uint256"
        }
      ],
      "name": "submitBid",
      "outputs": [
        {
          "name": "success",
          "type": "bool"
        }
      ],
      "payable": false,
      "stateMutability": "nonpayable",
      "type": "function"
    },
    {
      "constant": false,
      "inputs": [
        {
          "name": "_blindedBid",
          "type": "bytes32"
        }
      ],
      "name": "auctionEnd",
      "outputs": [],
      "payable": false,
      "stateMutability": "nonpayable",
      "type": "function"
    },
    {
      "constant": false,
      "inputs": [
        {
          "name": "amount",
          "type": "uint256"
        }
      ],
      "name": "requestToken",
      "outputs": [],
      "payable": false,
      "stateMutability": "nonpayable",
      "type": "function"
    }
  ],
  "bytecode": "0x608060405234801561001057600080fd5b50604051604080610995833981016040528051602090910151600160a060020a038216151561003e57600080fd5b60008054600160a060020a03938416600160a060020a0319918216179091556001805492909316911617905561091c806100796000396000f3006080604052600436106100825763ffffffff7c01000000000000000000000000000000000000000000000000000000006000350416632b4df9d38114610087578063362ff8ac146100a15780637621bd09146100d25780638f98eeda146100ea57806391dc1d3014610158578063c3b6f93914610187578063ea49249a1461019c575b600080fd5b34801561009357600080fd5b5061009f6004356101bd565b005b3480156100ad57600080fd5b506100b6610265565b60408051600160a060020a039092168252519081900360200190f35b3480156100de57600080fd5b5061009f600435610274565b3480156100f657600080fd5b50610102600435610479565b60408051600160a060020a03998a168152602081019890985287810196909652606087019490945291909516608085015260a084019490945260c083019390935291151560e08201529051908190036101000190f35b34801561016457600080fd5b506101736004356024356104cd565b604080519115158252519081900360200190f35b34801561019357600080fd5b506100b661074a565b3480156101a857600080fd5b5061009f600435602435604435606435610759565b60008054604080517fa9059cbb000000000000000000000000000000000000000000000000000000008152336004820152602481018590529051600160a060020a039092169263a9059cbb926044808401936020939083900390910190829087803b15801561022b57600080fd5b505af115801561023f573d6000803e3d6000fd5b505050506040513d602081101561025557600080fd5b5051151561026257600080fd5b50565b600154600160a060020a031681565b6000818152600260205260409020600601548190421161029357600080fd5b60008281526002602052604090206007015460ff16156102b257600080fd5b60008281526002602052604080822060078101805460ff191660019081179091558054600480840154929093015484517f56df3db1000000000000000000000000000000000000000000000000000000008152600160a060020a0393841694810194909452602484015292519216926356df3db19260448084019382900301818387803b15801561034257600080fd5b505af1158015610356573d6000803e3d6000fd5b505060008054858252600260209081526040808420805460059091015482517fa9059cbb000000000000000000000000000000000000000000000000000000008152600160a060020a039283166004820152602481019190915291519316955063a9059cbb9450604480820194929392918390030190829087803b1580156103dd57600080fd5b505af11580156103f1573d6000803e3d6000fd5b505050506040513d602081101561040757600080fd5b5051151561041457600080fd5b60008281526002602090815260409182902060048101546005909101548351868152928301528251600160a060020a039091169233927f75addadb8dcfecc159dbf6b13fb1d47d6f7c80c2756ed97bc28470008f6be506929081900390910190a35050565b600260208190526000918252604090912080546001820154928201546003830154600484015460058501546006860154600790960154600160a060020a039586169796949593949390921692909160ff1688565b6000828152600260205260408120600501548211610527576040805184815260208101849052815133927f16a26a2a4029d733b3019474fba9a4ddcddc11efe5909c69ee2d94a33f23b118928290030190a2506000610744565b600083815260026020526040902060040154600160a060020a031615801590610560575060008381526002602052604090206005015415155b15610622576000805484825260026020908152604080842060048082015460059092015483517fa9059cbb000000000000000000000000000000000000000000000000000000008152600160a060020a03938416928101929092526024820152915193169363a9059cbb93604480840194939192918390030190829087803b1580156105eb57600080fd5b505af11580156105ff573d6000803e3d6000fd5b505050506040513d602081101561061557600080fd5b5051151561062257600080fd5b60008054604080517f23b872dd000000000000000000000000000000000000000000000000000000008152336004820152306024820152604481018690529051600160a060020a03909216926323b872dd926064808401936020939083900390910190829087803b15801561069657600080fd5b505af11580156106aa573d6000803e3d6000fd5b505050506040513d60208110156106c057600080fd5b505115156106cd57600080fd5b60008381526002602090815260409182902060058101859055600401805473ffffffffffffffffffffffffffffffffffffffff1916339081179091558251868152918201859052825190927f0790739b64fd198a4c88deeed6b1dffdf203a4227ac91e55d036231ef7b6c6e4928290030190a25060015b92915050565b600054600160a060020a031681565b6000848152600260205260409020600601548490421061077857600080fd5b6101006040519081016040528033600160a060020a0316815260200185815260200186600019168152602001600081526020016000600160a060020a0316815260200183815260200184420181526020016000151581525060026000876000191660001916815260200190815260200160002060008201518160000160006101000a815481600160a060020a030219169083600160a060020a0316021790555060208201518160010155604082015181600201906000191690556060820151816003015560808201518160040160006101000a815481600160a060020a030219169083600160a060020a0316021790555060a0820151816005015560c0820151816006015560e08201518160070160006101000a81548160ff02191690831515021790555090505033600160a060020a03167f60e6478ec3e607a2753b37f982606339f59bb9f9c38dc96a30fd9d193ccfac258660405180826000191660001916815260200191505060405180910390a250505050505600a165627a7a72305820644062ecb20f74466279ca4b290af222f8eb63c5a8266a9ce6189e4fbf368c7e0029",
  "source": "pragma solidity ^0.4.24;\n\nimport \"./Token.sol\";\nimport \"../PokemonPlatform.sol\";\n\ncontract Auction {\n\n    Token  public  mToken;\n\n    PokemonPlatform public pokemon;\n\n    struct Bid {\n        address issuer;\n        uint pokemonId;\n        bytes32 blindedBid;\n        uint deposit;\n        address highestBidder;\n        uint highestBid;\n        uint biddingEnd;\n        bool ended;\n    }\n    mapping(bytes32 => Bid) public bids;\n\n    // modifier\n    modifier onlyBefore(bytes32 _blindedBid) {\n      require(now < bids[_blindedBid].biddingEnd);\n      _;\n    }\n\n    modifier onlyAfter(bytes32 _blindedBid) {\n      require(now > bids[_blindedBid].biddingEnd);\n      _;\n    }\n\n    // event\n    event BidSubmitted(address indexed _bider, bytes32 _blindedBid, uint _amount);\n    event BidCreated(address indexed _issuer, bytes32 _blindedBid);\n    event NeedBidHigher(address indexed _bider, bytes32 _blindedBid, uint _amount);\n    event AuctionEnded(address indexed _caller, bytes32 _blindedBid, address indexed _winner, uint _highestBid);\n\n    // constructor function\n    constructor(address _tokenAddress, address _pokemonAddress) public {\n        // address must be valid\n        require(_tokenAddress != address(0));\n        // instantiate deployed Ocean token contract\n        mToken = Token(_tokenAddress);\n        // pokemon instance\n        pokemon = PokemonPlatform(_pokemonAddress);\n    }\n\n    // any one can create a blind bid - input hash value as id of bid, time for bidding in second\n    function createBid(bytes32 _blindedBid, uint _pokemonId, uint _biddingTime, uint _startBidPrice) public onlyBefore(_blindedBid) {\n        bids[_blindedBid] = Bid(msg.sender, _pokemonId, _blindedBid, 0, 0x0, _startBidPrice, now + _biddingTime, false);\n        emit BidCreated(msg.sender, _blindedBid);\n    }\n\n    // user submit their bids - transfer funds from msg.sender to Auction contract\n    function submitBid(bytes32 _blindedBid, uint _amount) public returns (bool success){\n        if (_amount <= bids[_blindedBid].highestBid) {\n            emit NeedBidHigher(msg.sender, _blindedBid, _amount);\n            return false;\n        }\n        if (bids[_blindedBid].highestBidder != address(0) && bids[_blindedBid].highestBid != 0 ) {\n            // Refund the previously highest bidder.\n            require(mToken.transfer(bids[_blindedBid].highestBidder, bids[_blindedBid].highestBid));\n        }\n        require(mToken.transferFrom(msg.sender, address(this), _amount));\n        bids[_blindedBid].highestBid = _amount;\n        bids[_blindedBid].highestBidder = msg.sender;\n        emit BidSubmitted(msg.sender, _blindedBid, _amount);\n        return true;\n    }\n\n    /// End the auction\n    function auctionEnd(bytes32 _blindedBid) public onlyAfter(_blindedBid) {\n        require(!bids[_blindedBid].ended);\n        bids[_blindedBid].ended = true;\n        // transfer ownership\n        pokemon.changeOwner(bids[_blindedBid].highestBidder, bids[_blindedBid].pokemonId);\n        // transfer funds\n        require(mToken.transfer(bids[_blindedBid].issuer, bids[_blindedBid].highestBid));\n        emit AuctionEnded(msg.sender, _blindedBid, bids[_blindedBid].highestBidder, bids[_blindedBid].highestBid);\n    }\n\n    // request tokens for bid  - demo purpose\n    function requestToken(uint amount) public {\n        require(mToken.transfer(msg.sender, amount));\n    }\n\n}\n",
  "sourcePath": "/Users/fancy/Documents/hackathon/cryptoHackathon/smartContracts/contracts/aution/Aution.sol",
  "compiler": {
    "name": "solc",
    "version": "0.4.24+commit.e67f0147.Emscripten.clang"
  },
  "schemaVersion": "2.0.0",
  "updatedAt": "2018-08-05T18:20:25.214Z"
}