{
  "contractName": "PokemonPlatform",
  "abi": [
    {
      "constant": true,
      "inputs": [
        {
          "name": "",
          "type": "uint256"
        }
      ],
      "name": "pokemonToOwner",
      "outputs": [
        {
          "name": "",
          "type": "address"
        }
      ],
      "payable": false,
      "stateMutability": "view",
      "type": "function"
    },
    {
      "constant": true,
      "inputs": [
        {
          "name": "",
          "type": "address"
        }
      ],
      "name": "lastAccess",
      "outputs": [
        {
          "name": "timestamp",
          "type": "uint256"
        },
        {
          "name": "latitudeInt",
          "type": "int256"
        },
        {
          "name": "longitudeInt",
          "type": "int256"
        },
        {
          "name": "latitudeFloat",
          "type": "uint256"
        },
        {
          "name": "longitudeFloat",
          "type": "uint256"
        }
      ],
      "payable": false,
      "stateMutability": "view",
      "type": "function"
    },
    {
      "constant": true,
      "inputs": [
        {
          "name": "",
          "type": "bytes32"
        }
      ],
      "name": "lottery",
      "outputs": [
        {
          "name": "",
          "type": "uint256"
        }
      ],
      "payable": false,
      "stateMutability": "view",
      "type": "function"
    },
    {
      "constant": true,
      "inputs": [
        {
          "name": "",
          "type": "uint256"
        }
      ],
      "name": "pokemonToLocation",
      "outputs": [
        {
          "name": "timestamp",
          "type": "uint256"
        },
        {
          "name": "latitudeInt",
          "type": "int256"
        },
        {
          "name": "longitudeInt",
          "type": "int256"
        },
        {
          "name": "latitudeFloat",
          "type": "uint256"
        },
        {
          "name": "longitudeFloat",
          "type": "uint256"
        }
      ],
      "payable": false,
      "stateMutability": "view",
      "type": "function"
    },
    {
      "constant": true,
      "inputs": [],
      "name": "mOwner",
      "outputs": [
        {
          "name": "",
          "type": "address"
        }
      ],
      "payable": false,
      "stateMutability": "view",
      "type": "function"
    },
    {
      "constant": false,
      "inputs": [
        {
          "name": "_newOwner",
          "type": "address"
        }
      ],
      "name": "transferOwnership",
      "outputs": [],
      "payable": false,
      "stateMutability": "nonpayable",
      "type": "function"
    },
    {
      "inputs": [],
      "payable": false,
      "stateMutability": "nonpayable",
      "type": "constructor"
    },
    {
      "anonymous": false,
      "inputs": [
        {
          "indexed": false,
          "name": "_PokemonId",
          "type": "uint256"
        },
        {
          "indexed": true,
          "name": "_owner",
          "type": "address"
        },
        {
          "indexed": false,
          "name": "_name",
          "type": "string"
        },
        {
          "indexed": false,
          "name": "_url",
          "type": "string"
        },
        {
          "indexed": false,
          "name": "_bio",
          "type": "string"
        },
        {
          "indexed": false,
          "name": "_generation",
          "type": "uint256"
        },
        {
          "indexed": false,
          "name": "_releaseTimestamp",
          "type": "uint256"
        }
      ],
      "name": "ClaimPokemon",
      "type": "event"
    },
    {
      "anonymous": false,
      "inputs": [
        {
          "indexed": true,
          "name": "_user",
          "type": "address"
        }
      ],
      "name": "NoAvailablePokemon",
      "type": "event"
    },
    {
      "anonymous": false,
      "inputs": [
        {
          "indexed": false,
          "name": "_num",
          "type": "uint256"
        }
      ],
      "name": "GpsCheckFailed",
      "type": "event"
    },
    {
      "anonymous": false,
      "inputs": [
        {
          "indexed": false,
          "name": "_currentGeneration",
          "type": "uint256"
        },
        {
          "indexed": false,
          "name": "_amount",
          "type": "uint256"
        }
      ],
      "name": "PokemonReleased",
      "type": "event"
    },
    {
      "anonymous": false,
      "inputs": [
        {
          "indexed": false,
          "name": "_id",
          "type": "uint256"
        },
        {
          "indexed": false,
          "name": "_name",
          "type": "string"
        },
        {
          "indexed": false,
          "name": "_url",
          "type": "string"
        },
        {
          "indexed": false,
          "name": "_bio",
          "type": "string"
        },
        {
          "indexed": false,
          "name": "_generation",
          "type": "uint32"
        },
        {
          "indexed": false,
          "name": "_releaseTimestamp",
          "type": "uint32"
        }
      ],
      "name": "PokemonPopulated",
      "type": "event"
    },
    {
      "anonymous": false,
      "inputs": [
        {
          "indexed": false,
          "name": "_name",
          "type": "string"
        },
        {
          "indexed": true,
          "name": "_address",
          "type": "address"
        },
        {
          "indexed": false,
          "name": "_photoUrl",
          "type": "string"
        }
      ],
      "name": "UserProfileCreated",
      "type": "event"
    },
    {
      "anonymous": false,
      "inputs": [
        {
          "indexed": true,
          "name": "previousOwner",
          "type": "address"
        },
        {
          "indexed": true,
          "name": "newOwner",
          "type": "address"
        }
      ],
      "name": "OwnershipTransferred",
      "type": "event"
    },
    {
      "constant": false,
      "inputs": [
        {
          "name": "latitudeInt",
          "type": "int256"
        },
        {
          "name": "latitudeFloat",
          "type": "uint256"
        },
        {
          "name": "longitudeInt",
          "type": "int256"
        },
        {
          "name": "longitudeFloat",
          "type": "uint256"
        }
      ],
      "name": "findPokemon",
      "outputs": [
        {
          "name": "",
          "type": "bool"
        }
      ],
      "payable": false,
      "stateMutability": "nonpayable",
      "type": "function"
    },
    {
      "constant": true,
      "inputs": [
        {
          "name": "_index",
          "type": "uint256"
        }
      ],
      "name": "getPokemon",
      "outputs": [
        {
          "name": "",
          "type": "string"
        },
        {
          "name": "",
          "type": "string"
        },
        {
          "name": "",
          "type": "string"
        },
        {
          "name": "",
          "type": "uint256"
        },
        {
          "name": "",
          "type": "uint256"
        }
      ],
      "payable": false,
      "stateMutability": "view",
      "type": "function"
    },
    {
      "constant": true,
      "inputs": [
        {
          "name": "_index",
          "type": "uint256"
        }
      ],
      "name": "getPokemonOwnerView",
      "outputs": [
        {
          "name": "",
          "type": "string"
        },
        {
          "name": "",
          "type": "string"
        },
        {
          "name": "",
          "type": "string"
        },
        {
          "name": "",
          "type": "uint256"
        },
        {
          "name": "",
          "type": "uint256"
        },
        {
          "name": "",
          "type": "string"
        }
      ],
      "payable": false,
      "stateMutability": "view",
      "type": "function"
    },
    {
      "constant": true,
      "inputs": [],
      "name": "getMyPokemons",
      "outputs": [
        {
          "name": "",
          "type": "uint256[]"
        }
      ],
      "payable": false,
      "stateMutability": "view",
      "type": "function"
    },
    {
      "constant": true,
      "inputs": [],
      "name": "getAllPokemons",
      "outputs": [
        {
          "name": "",
          "type": "uint256[]"
        }
      ],
      "payable": false,
      "stateMutability": "view",
      "type": "function"
    },
    {
      "constant": true,
      "inputs": [],
      "name": "getUnclaimedPokemons",
      "outputs": [
        {
          "name": "",
          "type": "uint256[]"
        }
      ],
      "payable": false,
      "stateMutability": "view",
      "type": "function"
    },
    {
      "constant": false,
      "inputs": [
        {
          "name": "name",
          "type": "string"
        },
        {
          "name": "url",
          "type": "string"
        },
        {
          "name": "bio",
          "type": "string"
        },
        {
          "name": "generation",
          "type": "uint32"
        }
      ],
      "name": "populatePokemon",
      "outputs": [],
      "payable": false,
      "stateMutability": "nonpayable",
      "type": "function"
    },
    {
      "constant": false,
      "inputs": [],
      "name": "releasePokemon",
      "outputs": [],
      "payable": false,
      "stateMutability": "nonpayable",
      "type": "function"
    },
    {
      "constant": false,
      "inputs": [
        {
          "name": "_name",
          "type": "string"
        },
        {
          "name": "_photoUrl",
          "type": "string"
        }
      ],
      "name": "createProfile",
      "outputs": [
        {
          "name": "",
          "type": "bool"
        }
      ],
      "payable": false,
      "stateMutability": "nonpayable",
      "type": "function"
    },
    {
      "constant": true,
      "inputs": [],
      "name": "getReleaseNumber",
      "outputs": [
        {
          "name": "",
          "type": "uint256"
        }
      ],
      "payable": false,
      "stateMutability": "view",
      "type": "function"
    },
    {
      "constant": true,
      "inputs": [],
      "name": "getProfile",
      "outputs": [
        {
          "name": "",
          "type": "string"
        },
        {
          "name": "",
          "type": "address"
        },
        {
          "name": "",
          "type": "string"
        },
        {
          "name": "",
          "type": "uint256"
        }
      ],
      "payable": false,
      "stateMutability": "view",
      "type": "function"
    },
    {
      "constant": true,
      "inputs": [
        {
          "name": "pokemonId",
          "type": "uint256"
        }
      ],
      "name": "getPokemonLocation",
      "outputs": [
        {
          "name": "",
          "type": "int256"
        },
        {
          "name": "",
          "type": "uint256"
        },
        {
          "name": "",
          "type": "int256"
        },
        {
          "name": "",
          "type": "uint256"
        }
      ],
      "payable": false,
      "stateMutability": "view",
      "type": "function"
    },
    {
      "constant": false,
      "inputs": [
        {
          "name": "newOwner",
          "type": "address"
        },
        {
          "name": "_index",
          "type": "uint256"
        }
      ],
      "name": "changeOwner",
      "outputs": [],
      "payable": false,
      "stateMutability": "nonpayable",
      "type": "function"
    }
  ],
  "bytecode": "0x60806040526000600a5534801561001557600080fd5b5060008054600160a060020a03191633178155610e106009556001600b55600c55612106806100456000396000f3006080604052600436106101065763ffffffff7c01000000000000000000000000000000000000000000000000000000006000350416632f7467b3811461010b5780633a3a2c3e1461013f5780634dd2f5301461030f57806356df3db1146103745780635e9167901461039a5780636deba99c146103af57806372e678c4146103c457806393c6d39b1461040257806398b3874814610437578063a06bbcbf14610514578063a8b955e714610560578063ba1feb8a14610575578063c2ebac64146105a1578063cff4c845146105c8578063d6afc9b1146105e0578063d6fe1a6a146106f3578063dcda4bf31461070b578063f0b305db14610720578063f2fde38b1461088a575b600080fd5b34801561011757600080fd5b506101236004356108ab565b60408051600160a060020a039092168252519081900360200190f35b34801561014b57600080fd5b506101576004356108c6565b604051808060200180602001806020018781526020018681526020018060200185810385528b818151815260200191508051906020019080838360005b838110156101ac578181015183820152602001610194565b50505050905090810190601f1680156101d95780820380516001836020036101000a031916815260200191505b5085810384528a5181528a516020918201918c019080838360005b8381101561020c5781810151838201526020016101f4565b50505050905090810190601f1680156102395780820380516001836020036101000a031916815260200191505b5085810383528951815289516020918201918b019080838360005b8381101561026c578181015183820152602001610254565b50505050905090810190601f1680156102995780820380516001836020036101000a031916815260200191505b50858103825286518152865160209182019188019080838360005b838110156102cc5781810151838201526020016102b4565b50505050905090810190601f1680156102f95780820380516001836020036101000a031916815260200191505b509a505050505050505050505060405180910390f35b34801561031b57600080fd5b50610324610be6565b60408051602080825283518183015283519192839290830191858101910280838360005b83811015610360578181015183820152602001610348565b505050509050019250505060405180910390f35b34801561038057600080fd5b50610398600160a060020a0360043516602435610cab565b005b3480156103a657600080fd5b50610324610ce6565b3480156103bb57600080fd5b50610398610d83565b3480156103d057600080fd5b506103dc600435610f40565b604080519485526020850193909352838301919091526060830152519081900360800190f35b34801561040e57600080fd5b50610423600435602435604435606435610fc0565b604080519115158252519081900360200190f35b34801561044357600080fd5b506040805160206004803580820135601f810184900484028501840190955284845261039894369492936024939284019190819084018382808284375050604080516020601f89358b018035918201839004830284018301909452808352979a99988101979196509182019450925082915084018382808284375050604080516020601f89358b018035918201839004830284018301909452808352979a9998810197919650918201945092508291508401838280828437509497505050923563ffffffff1693506112f592505050565b34801561052057600080fd5b50610535600160a060020a0360043516611559565b6040805195865260208601949094528484019290925260608401526080830152519081900360a00190f35b34801561056c57600080fd5b50610324611588565b34801561058157600080fd5b50610423602460048035828101929082013591813591820191013561165d565b3480156105ad57600080fd5b506105b661185e565b60408051918252519081900360200190f35b3480156105d457600080fd5b506105b6600435611869565b3480156105ec57600080fd5b506105f561187b565b604051808060200185600160a060020a0316600160a060020a0316815260200180602001848152602001838103835287818151815260200191508051906020019080838360005b8381101561065457818101518382015260200161063c565b50505050905090810190601f1680156106815780820380516001836020036101000a031916815260200191505b50838103825285518152855160209182019187019080838360005b838110156106b457818101518382015260200161069c565b50505050905090810190601f1680156106e15780820380516001836020036101000a031916815260200191505b50965050505050505060405180910390f35b3480156106ff57600080fd5b50610535600435611ab8565b34801561071757600080fd5b50610123611ae7565b34801561072c57600080fd5b50610738600435611af6565b60405180806020018060200180602001868152602001858152602001848103845289818151815260200191508051906020019080838360005b83811015610789578181015183820152602001610771565b50505050905090810190601f1680156107b65780820380516001836020036101000a031916815260200191505b5084810383528851815288516020918201918a019080838360005b838110156107e95781810151838201526020016107d1565b50505050905090810190601f1680156108165780820380516001836020036101000a031916815260200191505b50848103825287518152875160209182019189019080838360005b83811015610849578181015183820152602001610831565b50505050905090810190601f1680156108765780820380516001836020036101000a031916815260200191505b509850505050505050505060405180910390f35b34801561089657600080fd5b50610398600160a060020a0360043516611d38565b600560205260009081526040902054600160a060020a031681565b606080606060008060606108d8611fb0565b600060606001808b038154811015156108ed57fe5b600091825260209182902060408051600593909302909101805460026001821615610100026000190190911604601f8101859004909402830160c090810190925260a08301848152929390928492909184918401828280156109905780601f1061096557610100808354040283529160200191610990565b820191906000526020600020905b81548152906001019060200180831161097357829003601f168201915b50505050508152602001600182018054600181600116156101000203166002900480601f016020809104026020016040519081016040528092919081815260200182805460018160011615610100020316600290048015610a325780601f10610a0757610100808354040283529160200191610a32565b820191906000526020600020905b815481529060010190602001808311610a1557829003601f168201915b5050509183525050600282810180546040805160206001841615610100026000190190931694909404601f81018390048302850183019091528084529381019390830182828015610ac45780601f10610a9957610100808354040283529160200191610ac4565b820191906000526020600020905b815481529060010190602001808311610aa757829003601f168201915b5050509183525050600382015460208083019190915260049092015460409182015260008d8152600583528181205482519384019092528252919450600160a060020a03909116925090508115610bba57600160a060020a03821660009081526004602090815260409182902080548351601f600260001961010060018616150201909316929092049182018490048402810184019094528084529091830182828015610bb25780601f10610b8757610100808354040283529160200191610bb2565b820191906000526020600020905b815481529060010190602001808311610b9557829003601f168201915b505050505090505b8251602084015160408501516060860151608090960151929d919c509a50939850965094509092505050565b6060806000806004600033600160a060020a0316600160a060020a0316815260200190815260200160002060030154604051908082528060200260200182016040528015610c3e578160200160208202803883390190505b50925060009150600090505b600154811015610ca35760018101600090815260056020526040902054600160a060020a0316331415610c9b57806001018383815181101515610c8957fe5b60209081029091010152600191909101905b600101610c4a565b509092915050565b6000908152600560205260409020805473ffffffffffffffffffffffffffffffffffffffff1916600160a060020a0392909216919091179055565b606080600080600354604051908082528060200260200182016040528015610d18578160200160208202803883390190505b50925060009150600090505b600154811015610ca3576001805482908110610d3c57fe5b9060005260206000209060050201600401546000141515610d7b57806001018383815181101515610d6957fe5b60209081029091010152600191909101905b600101610d24565b600080600080600080610d94611fe0565b6000809750600096505b600154871015610ef157600a546001805489908110610db957fe5b90600052602060002090600502016003015411158015610df857506001805488908110610de257fe5b9060005260206000209060050201600401546000145b15610ee65742600188815481101515610e0d57fe5b60009182526020909120600460059092020101556003805460019081019091559790970196610e3a611d93565b8096508197508298508399505050505060a06040519081016040528042815260200187815260200185815260200186815260200184815250915081600860008960010181526020019081526020016000206000820151816000015560208201518160010155604082015181600201556060820151816003015560808201518160040155905050610ecf86868686600a54611e0b565b600081815260066020526040902060018901905590505b600190960195610d9e565b600a80546001810190915560408051918252602082018a905280517f08c95ac0d1ee0791132d8cd5d5783d82ca5bcec68d1557eb50b9443acd850d159281900390910190a15050505050505050565b600080600080610f4e611fe0565b600054600160a060020a03163314610f6557600080fd5b5050506000928352505060086020908152604091829020825160a08101845281548152600182015492810183905260028201549381018490526003820154606082018190526004909201546080909101819052919390929190565b336000908152600760205260408120428155600181018690556002810184905560038101859055600401829055808080805b600a548410156112b9576110098989898988611e0b565b600081815260066020526040902054909350156112ae57600083815260066020908152604080832054808452600590925290912054909250600160a060020a031615611054576112ae565b6000828152600560209081526040808320805473ffffffffffffffffffffffffffffffffffffffff191633908117909155835260049091529020600301805460019081019091556002805482019055805460001984019081106110b357fe5b9060005260206000209060050201905033600160a060020a03167fa4447766f159a643ba0f19e74f766d2e6d22e2e1465d78c9a232176c5b6156c68383600001846001018560020186600301548760040154604051808781526020018060200180602001806020018681526020018581526020018481038452898181546001816001161561010002031660029004815260200191508054600181600116156101000203166002900480156111a85780601f1061117d576101008083540402835291602001916111a8565b820191906000526020600020905b81548152906001019060200180831161118b57829003601f168201915b505084810383528854600260001961010060018416150201909116048082526020909101908990801561121c5780601f106111f15761010080835404028352916020019161121c565b820191906000526020600020905b8154815290600101906020018083116111ff57829003601f168201915b50508481038252875460026000196101006001841615020190911604808252602090910190889080156112905780601f1061126557610100808354040283529160200191611290565b820191906000526020600020905b81548152906001019060200180831161127357829003601f168201915b5050995050505050505050505060405180910390a2600194506112e9565b600190930192610ff2565b60405133907fa5c3317befe4b309ad3fd3979568af7a83c0700cf90d15bce40fe5a11b7f0b5490600090a2600094505b50505050949350505050565b6040805160a081018252858152602080820186905291810184905263ffffffff831660608201526000608082018190526001805480820180835591835283518051939592949360059092027fb10e2d527612073b26eecdfd717e6a320cf44b4afac2b0732d9fcbe2b7fa0cf6019261137292849290910190612010565b50602082810151805161138b9260018501920190612010565b50604082015180516113a7916002840191602090910190612010565b506060820151816003015560808201518160040155505090507f02e7bcce4bfdc81ff09a06fc19cce5565d456dbd33d96009b7143df1f57c806e81868686866000604051808781526020018060200180602001806020018663ffffffff1663ffffffff1681526020018563ffffffff168152602001848103845289818151815260200191508051906020019080838360005b83811015611451578181015183820152602001611439565b50505050905090810190601f16801561147e5780820380516001836020036101000a031916815260200191505b5084810383528851815288516020918201918a019080838360005b838110156114b1578181015183820152602001611499565b50505050905090810190601f1680156114de5780820380516001836020036101000a031916815260200191505b50848103825287518152875160209182019189019080838360005b838110156115115781810151838201526020016114f9565b50505050905090810190601f16801561153e5780820380516001836020036101000a031916815260200191505b50995050505050505050505060405180910390a15050505050565b600760205260009081526040902080546001820154600283015460038401546004909401549293919290919085565b606060006060600080600254600354039350836040519080825280602002602001820160405280156115c4578160200160208202803883390190505b50925060009150600090505b6001548110156116545760006001828154811015156115eb57fe5b906000526020600020906005020160040154118015611623575060018101600090815260056020526040902054600160a060020a0316155b1561164c5780600101838381518110151561163a57fe5b60209081029091010152600191909101905b6001016115d0565b50909392505050565b33600090815260046020526040812060010154600160a060020a03161561168657506000611856565b6040805160a06020601f880181900402820181019092526080810186815290918291908890889081908501838280828437820191505050505050815260200133600160a060020a0316815260200184848080601f016020809104026020016040519081016040528093929190818152602001838380828437505050928452505060006020928301819052338152600483526040902083518051919361173093508492910190612010565b5060208281015160018301805473ffffffffffffffffffffffffffffffffffffffff1916600160a060020a039092169190911790556040830151805161177c9260028501920190612010565b506060918201516003918201556040805160a0810182526000808252602080830182815283850183815284880184815260808601858152338087526007865295889020965187559251600187015590516002860155519584019590955593516004909201919091558151828152918201889052927f5a85eb224bd8517c8bfb485b8c7d6598e9ff82fb6bf879e2f911994faa09048f92899289928992899291829182019082018787808284379091018481038352858152602001905085858082843760405192018290039850909650505050505050a25060015b949350505050565b600a54600019015b90565b60066020526000908152604090205481565b606060006060600061188b61208e565b33600090815260046020526040902060010154600160a060020a0316151561193a57604080517f08c379a000000000000000000000000000000000000000000000000000000000815260206004820152603760248201527f7573657220686173206e6f2070726f66696c653b20706c656173652063616c6c60448201527f2063726561746550726f66696c652066756e6374696f6e000000000000000000606482015290519081900360840190fd5b336000908152600460209081526040918290208251815460026001821615610100026000190190911604601f8101849004909302810160a0908101909452608081018381529093919284928491908401828280156119d95780601f106119ae576101008083540402835291602001916119d9565b820191906000526020600020905b8154815290600101906020018083116119bc57829003601f168201915b5050509183525050600182810154600160a060020a0316602080840191909152600280850180546040805161010096831615969096026000190190911692909204601f81018490048402850184018352808552919094019391830182828015611a835780601f10611a5857610100808354040283529160200191611a83565b820191906000526020600020905b815481529060010190602001808311611a6657829003601f168201915b505050918352505060039190910154602091820152815190820151604083015160609093015191989097509195509350915050565b600860205260009081526040902080546001820154600283015460038401546004909401549293919290919085565b600054600160a060020a031681565b6060806060600080611b06611fb0565b600180546000198901908110611b1857fe5b600091825260209182902060408051600593909302909101805460026001821615610100026000190190911604601f8101859004909402830160c090810190925260a0830184815292939092849290918491840182828015611bbb5780601f10611b9057610100808354040283529160200191611bbb565b820191906000526020600020905b815481529060010190602001808311611b9e57829003601f168201915b50505050508152602001600182018054600181600116156101000203166002900480601f016020809104026020016040519081016040528092919081815260200182805460018160011615610100020316600290048015611c5d5780601f10611c3257610100808354040283529160200191611c5d565b820191906000526020600020905b815481529060010190602001808311611c4057829003601f168201915b5050509183525050600282810180546040805160206001841615610100026000190190931694909404601f81018390048302850183019091528084529381019390830182828015611cef5780601f10611cc457610100808354040283529160200191611cef565b820191906000526020600020905b815481529060010190602001808311611cd257829003601f168201915b50505091835250506003820154602080830191909152600490920154604091820152825191830151908301516060840151608090940151929b919a509850919650945092505050565b600054600160a060020a03163314611d4f57600080fd5b600160a060020a0381161515611d6457600080fd5b6000805473ffffffffffffffffffffffffffffffffffffffff1916600160a060020a0392909216919091179055565b600080808060256079198280620493e0611dad6011611f0c565b63ffffffff16811515611dbc57fe5b066207a1200163ffffffff1691506203d090611dd8607b611f0c565b63ffffffff16811515611de757fe5b066203d0900163ffffffff1690508382848397509750975097505050505090919293565b6101689485900794620f42409485900694930792909106906000811515611e4457612710850690940393612710835b0683039250611e6f565b60028211611e5e576103e88506909403936103e883611e3a565b606485069094039360648306830392505b85848685604051602001808581526020018481526020018381526020018281526020019450505050506040516020818303038152906040526040518082805190602001908083835b60208310611ed65780518252601f199092019160209182019101611eb7565b5181516020939093036101000a600019018019909116921691909117905260405192018290039091209998505050505050505050565b60006401000000004244846040516020018084815260200183815260200182815260200193505050506040516020818303038152906040526040518082805190602001908083835b60208310611f735780518252601f199092019160209182019101611f54565b5181516020939093036101000a6000190180199091169216919091179052604051920182900390912092505050811515611fa957fe5b0692915050565b60a06040519081016040528060608152602001606081526020016060815260200160008152602001600081525090565b60a06040519081016040528060008152602001600081526020016000815260200160008152602001600081525090565b828054600181600116156101000203166002900490600052602060002090601f016020900481019282601f1061205157805160ff191683800117855561207e565b8280016001018555821561207e579182015b8281111561207e578251825591602001919060010190612063565b5061208a9291506120c0565b5090565b608060405190810160405280606081526020016000600160a060020a0316815260200160608152602001600081525090565b61186691905b8082111561208a57600081556001016120c65600a165627a7a72305820daf32f2638e8a3a3aecb827c2faea6615279592253801220e45644c205d797630029",
  "source": "pragma solidity ^0.4.22;\n\nimport './zeppelin/Ownable.sol';\nimport './gps.sol';\n\ncontract PokemonPlatform is Ownable, gps{\n    // Parameters of the Pokemon\n    struct Pokemon { // Struct\n        string name;\n        string url;\n        string bio;\n        uint generation;\n        uint releaseTimestamp;\n    }\n    // array of Pokemon\n    Pokemon [] allPokemons;\n    // number of total claimed Pokemon\n    uint numClaimedPokemon;\n    // number of released Pokemon\n    uint numReleasedPokemon;\n\n    // latitudeInt is the integer part of the latitude, latitudeFloat is the float part\n    struct Access {\n      uint timestamp;\n      int latitudeInt;\n      int longitudeInt;\n      uint latitudeFloat;\n      uint longitudeFloat;\n    }\n\n    struct UserProfile {\n      string name;\n      address userAddress;\n      string photoUrl;\n      uint   numPokemon;\n    }\n    // given address return the user profile info\n    mapping(address => UserProfile) ownerToProfile;\n\n    // the ownership of the pokemonId  => owner address\n    mapping(uint => address) public pokemonToOwner;\n\n    // store the location of pokemon, byte32 is the hash versioned of the geohash\n    mapping(bytes32 => uint) public lottery;\n\n    // the last access user have. used to GPS check and rate limit\n    mapping(address => Access) public lastAccess;\n\n    // hacking geoLocations data for dashboard and display\n    mapping(uint => Access) public pokemonToLocation;\n\n    // the generation number and total count\n    //event NewPokemonGenerationReleased(uint generation, uint totalCount);\n    event ClaimPokemon(uint _PokemonId , address indexed _owner, string _name, string _url, string _bio, uint _generation, uint _releaseTimestamp);\n    event NoAvailablePokemon(address indexed _user);\n    event GpsCheckFailed(uint _num);\n    event PokemonReleased(uint _currentGeneration, uint _amount);\n    event PokemonPopulated(uint _id, string _name, string _url, string _bio, uint32 _generation, uint32 _releaseTimestamp);\n    event UserProfileCreated(string _name, address indexed _address, string _photoUrl);\n\n    uint rateLimitInterval;\n    uint nextGeneration = 0;\n    // gps Int and float are used to prevent gps spoofing.\n    uint gpsThresholdInt;\n    uint gpsThresholdFloat;\n\n    constructor() public {\n      rateLimitInterval = 1 hours;\n      gpsThresholdInt = 1;\n      gpsThresholdFloat = 0;\n    }\n\n    modifier rateLimitCheck() {\n      if (lastAccess[msg.sender].timestamp != 0) {\n        require(lastAccess[msg.sender].timestamp + rateLimitInterval < now);\n      }\n      _;\n    }\n\n    function gpsCheck(int latitudeInt, uint latitudeFloat, int longitudeInt, uint longitudeFloat) private view returns(bool) {\n      if (latitudeInt >= 180 || latitudeInt <= -180 || longitudeInt >= 180 || longitudeInt <= -180) {\n        return false;\n      }\n      Access memory la = lastAccess[msg.sender];\n      if (la.timestamp != 0) {\n        uint intDiff;\n        uint floatDiff;\n        (intDiff, floatDiff) = gpsDifference(la.latitudeInt, la.latitudeFloat, la.longitudeInt, la.longitudeFloat, latitudeInt, latitudeFloat, longitudeInt, longitudeFloat);\n        return (intDiff < gpsThresholdInt) || (intDiff == gpsThresholdInt && floatDiff <= gpsThresholdFloat);\n      }\n      return true;\n    }\n\n    modifier hasProfile() {\n        require(ownerToProfile[msg.sender].userAddress != address(0), \"user has no profile; please call createProfile function\");\n        _;\n    }\n\n\n    // TODO: apply ratelimit and GPS spoofing checks - user claim ownership of Pokemon\n    function findPokemon(int latitudeInt, uint latitudeFloat, int longitudeInt, uint longitudeFloat) external\n      returns(bool) {\n        //if (!gpsCheck(latitudeInt, latitudeFloat, longitudeInt, longitudeFloat)) {\n        //  emit GpsCheckFailed(1);\n        //  return false;\n        //}\n        // log access\n        lastAccess[msg.sender].timestamp = block.timestamp;\n        lastAccess[msg.sender].latitudeInt = latitudeInt;\n        lastAccess[msg.sender].longitudeInt = longitudeInt;\n        lastAccess[msg.sender].latitudeFloat = latitudeFloat;\n        lastAccess[msg.sender].longitudeFloat = longitudeFloat;\n\n        for (uint generation = 0; generation < nextGeneration; generation++) {\n          bytes32 geoHash = generateGeoHash(latitudeInt, latitudeFloat, longitudeInt, longitudeFloat, generation);\n          if(lottery[geoHash] != 0) {\n            uint pId = lottery[geoHash];\n            if (pokemonToOwner[pId] != address(0)) {\n                // pokemon has been claimed\n                continue;\n            }\n            pokemonToOwner[pId] = msg.sender;\n            ownerToProfile[msg.sender].numPokemon += 1;\n            numClaimedPokemon += 1;\n\n            // read Pokemons\n            Pokemon storage newPokemon = allPokemons[pId - 1];\n            emit ClaimPokemon(pId, msg.sender, newPokemon.name, newPokemon.url,\n              newPokemon.bio, newPokemon.generation, newPokemon.releaseTimestamp);\n            return true;\n          }\n        }\n\n        emit NoAvailablePokemon(msg.sender);\n        return false;\n    }\n\n    function getPokemon(uint _index) external view returns (string, string, string, uint, uint) {\n      Pokemon memory p = allPokemons[_index - 1];\n      return (p.name, p.url, p.bio, p.generation, p.releaseTimestamp);\n    }\n    // return name, url, bio, generation, releaseTimestamp, ownerName\n    function getPokemonOwnerView(uint _index) external view\n        returns (string, string, string, uint, uint, string) {\n      Pokemon memory p = allPokemons[_index - 1];\n      address ownerAddress = pokemonToOwner[_index];\n      string memory name = \"\";\n      if (ownerAddress != address(0)) {\n        name = ownerToProfile[ownerAddress].name;\n      }\n      return (p.name, p.url, p.bio, p.generation, p.releaseTimestamp, name);\n    }\n\n    // get the pokemon belong to current owner - retuns integer array of Pokemon Ids\n    function getMyPokemons() external view returns (uint[]){\n      // loop through to look for Pokemon belonging to this msg.sender\n      uint[] memory v = new uint[](ownerToProfile[msg.sender].numPokemon);\n      uint k = 0;\n      for (uint i=0; i < allPokemons.length; i++) {\n          if(pokemonToOwner[i + 1] == msg.sender){\n            // pokemon id is index + 1\n              v[k] = i + 1;\n              k += 1;\n          }\n      }\n      return v;\n    }\n\n    // get all available pokemon that has been released\n    function getAllPokemons() external view returns (uint[]) {\n      // find all released Pokemon\n      uint[] memory v = new uint[](numReleasedPokemon);\n      uint k = 0;\n      for (uint i=0; i < allPokemons.length; i++) {\n          // release time is earlier than current timestamp -> released Pokemon\n          if(allPokemons[i].releaseTimestamp != 0 ){\n              v[k] = i + 1;\n              k += 1;\n          }\n      }\n      return v;\n    }\n\n    // get the unclaimed pokemon mapping\n    function getUnclaimedPokemons() external view  returns(uint[]) {\n      // front end parse the generation and total count\n      // find all released Pokemon\n      uint numUnclaimed = numReleasedPokemon - numClaimedPokemon;\n      uint[] memory v = new uint[](numUnclaimed);\n      uint k = 0;\n      for (uint i=0; i < allPokemons.length; i++) {\n          // release time is earlier than current timestamp -> released Pokemon\n          if(allPokemons[i].releaseTimestamp > 0 && pokemonToOwner[i + 1] == address(0)){\n              v[k] = i + 1;\n              k += 1;\n          }\n      }\n      return v;\n    }\n\n    // used to add new pokemons into allPokemons\n    function populatePokemon(string name, string url, string bio, uint32 generation) public  {\n      // increment Id\n      uint PokemonId = allPokemons.push(Pokemon(name, url, bio, generation, 0));\n      emit PokemonPopulated(PokemonId, name, url, bio, generation, 0);\n    }\n\n    // owner release new pokemon generation\n    function releasePokemon() public  {\n        // release Pokemons with nextGeneration\n        uint amount = 0;\n        for (uint i=0; i < allPokemons.length; i++) {\n            // release time is earlier than current timestamp -> released Pokemon\n            if(allPokemons[i].generation <= nextGeneration && allPokemons[i].releaseTimestamp == 0){\n                allPokemons[i].releaseTimestamp = block.timestamp;\n                numReleasedPokemon += 1;\n                amount += 1;\n                // add geoHash to pokemonToLocation\n                int laInt;\n                uint laFloat;\n                int loInt;\n                uint loFloat;\n                (laInt, laFloat, loInt, loFloat) = generateRandomLocation();\n                Access memory newAccess = Access(block.timestamp, laInt, loInt, laFloat, loFloat);\n                pokemonToLocation[i + 1] = newAccess;\n                // add geoHash to lottery\n                bytes32 hashcode = generateGeoHash(laInt, laFloat, loInt, loFloat, nextGeneration);\n                lottery[hashcode] = i + 1;\n            }\n        }\n        // increment generation counter\n        nextGeneration += 1;\n        emit PokemonReleased(nextGeneration - 1, amount);\n    }\n\n    // create user profile\n    function createProfile(string _name, string _photoUrl) external returns (bool){\n        // create user profile\n        if (ownerToProfile[msg.sender].userAddress != address(0)){\n            return false;\n        }\n        ownerToProfile[msg.sender] = UserProfile(_name, msg.sender, _photoUrl, 0);\n        // create access\n        lastAccess[msg.sender] = Access(0, 0, 0, 0, 0);\n        emit UserProfileCreated(_name, msg.sender, _photoUrl);\n        return true;\n    }\n\n    function getReleaseNumber() external view returns (uint) {\n       return nextGeneration -1;\n    }\n\n\n    // return the user getProfile\n    function getProfile() external view hasProfile() returns (string, address, string, uint) {\n        UserProfile memory user = ownerToProfile[msg.sender];\n        return (user.name, user.userAddress, user.photoUrl, user.numPokemon);\n    }\n\n    // get all pokemon locations , this is for system testing and demo only\n    function getPokemonLocation(uint pokemonId) public view onlyOwner returns(int, uint, int, uint) {\n        Access memory access = pokemonToLocation[pokemonId];\n        return (access.latitudeInt, access.latitudeFloat, access.longitudeInt, access.longitudeFloat);\n    }\n\n    // transfer ownership\n    function changeOwner(address newOwner, uint _index) public {\n        pokemonToOwner[_index] = newOwner;\n    }\n\n}\n",
  "sourcePath": "/Users/fancy/Documents/hackathon/cryptoHackathon/smartContracts/contracts/PokemonPlatform.sol",
  "compiler": {
    "name": "solc",
    "version": "0.4.24+commit.e67f0147.Emscripten.clang"
  },
  "schemaVersion": "2.0.0",
  "updatedAt": "2018-08-05T18:37:37.874Z"
}